:100000000C94E0000C9489170C9462170C9408016E
:100010000C9408010C9408010C94B0170C9408017E
:100020000C9408010C9408010C9408010C9408012C
:100030000C9408010C9408010C9408010C9408011C
:100040000C9418170C9408010C94E6160C94C01626
:100050000C9408010C9408010C9408010C940801FC
:100060000C94C7170C94080100407A10F35A00A0B2
:10007000724E18090010A5D4E80000E87648170071
:1000800000E40B54020000CA9A3B000000E1F505B1
:10009000000080969800000040420F000000A086FB
:1000A00001000000102700000000E803000000002D
:1000B0006400000000000A000000000001000000D1
:1000C00000002C76D888DC674F0823DFC1DFAE59EB
:1000D000E1B1B796E5E3E453C63AE651997696E87E
:1000E000E6C28426EB898C9B62ED407C6FFCEFBC02
:1000F0009C9F40F2BAA56FA5F490055A2AF75C932D
:100100006B6CF9676DC11BFCE0E40D47FEF520E662
:10011000B500D0ED902E0300943577050080841E45
:10012000080000204E0A000000C80C333333330FA0
:10013000986E12831141EF8D2114893BE65516CF3D
:10014000FEE6DB18D1844B381BF77C1D901DA4BB49
:10015000E424203284725E228100C9F124ECA1E5FE
:100160003D2700000000240027002A0000000000B6
:10017000250028002B000000000023002600290095
:10018000040404040404040402020202020203033D
:100190000303030301020408102040800102040845
:1001A00010200102040810200000000800020100D5
:1001B0000003040700000000000000009619AF1EB5
:1001C00011241FBECFEFD8E0DEBFCDBF12E0A0E00C
:1001D000B1E0EEE1F4E502C005900D92AC3BB10751
:1001E000D9F727E0ACEBB2E001C01D92A833B2070B
:1001F000E1F710E0CFEDD0E004C02197FE010E94AE
:10020000D224CE3DD107C9F70E946F1A0C94022A5E
:100210000C940000089508952091B1043091B20427
:100220002230310521F12330310561F4E99881E074
:1002300090E0880F991FFC01EF5FFE4F8AE491E088
:100240009183808380E02230310529F08FEF2330C5
:10025000310509F481E0909187039230C1F09FB796
:10026000F894882341F0813099F080E005C0E89847
:1002700090E080E0DECF81E08095209186038223AC
:1002800080938603811102C0109287039FBF089557
:1002900082E0F2CF08958230C8F4E82FF0E0EE0F4C
:1002A000FF1FEF5FFE4F25E239E03183208381306D
:1002B00039F080916900836080936900E89A08951D
:1002C000809169008C6080936900E99A0895FC012F
:1002D000EF5DFD4F208131969081422F491B550BD8
:1002E000CA010895AF92BF92CF92DF92EF92FF9230
:1002F0000F931F93CF93DF936C017B018B01040F4E
:10030000151FEB015E01AE18BF08C017D10759F0E9
:100310006991D601ED91FC910190F081E02DC6012B
:100320000995892B79F7C501DF91CF911F910F9125
:10033000FF90EF90DF90CF90BF90AF900895FC01B9
:10034000538D448D252F30E0842F90E0821B930B3A
:10035000541710F0CF96089501970895FC01918DE0
:10036000828D981761F0A28DAE0FBF2FB11D5D96E3
:100370008C91928D9F5F9F73928F90E008958FEF85
:100380009FEF0895FC01918D828D981731F0828D39
:10039000E80FF11D858D90E008958FEF9FEF089590
:1003A000FC01918D228D892F90E0805C9F4F821BF4
:1003B00091098F73992708958FEF93E00E94D001E0
:1003C00021E0892B09F420E0822F089580E090E05D
:1003D000892B29F00E94DC0181110C940000089502
:1003E000FC01A48DA80FB92FB11DA35ABF4F2C91AA
:1003F000848D90E001968F739927848FA689B789A1
:100400002C93A089B1898C91837080648C93938D97
:10041000848D981306C00288F389E02D80818F7D3A
:1004200080830895EF92FF920F931F93CF93DF93F2
:10043000EC0181E0888F9B8D8C8D98131AC0E88920
:10044000F989808185FF15C09FB7F894EE89FF89EF
:100450006083E889F98980818370806480839FBF8D
:1004600081E090E0DF91CF911F910F91FF90EF908D
:100470000895F62E0B8D10E00F5F1F4F0F7311279D
:10048000E02E8C8D8E110CC00FB607FCFACFE889D8
:10049000F989808185FFF5CFCE010E94F001F1CF6F
:1004A000EB8DEC0FFD2FF11DE35AFF4FF0829FB74C
:1004B000F8940B8FEA89FB8980818062CFCFCF933C
:1004C000DF93EC01888D8823B9F0AA89BB89E8897C
:1004D000F9898C9185FD03C0808186FD0DC00FB622
:1004E00007FCF7CF8C9185FFF2CF808185FFEDCFA0
:1004F000CE010E94F001E9CFDF91CF9108958330C2
:1005000081F028F4813099F08230A9F00895873085
:10051000A9F08830C9F08430B1F4809180008F7DDB
:1005200003C0809180008F7780938000089584B508
:100530008F7784BD089584B58F7DFBCF8091B00007
:100540008F778093B00008958091B0008F7DF9CFB0
:100550001F93CF93DF93282F30E0F901E855FE4F2A
:100560008491F901EC56FE4FD491F901E058FE4F09
:10057000C491CC23A9F0162F81110E947F02EC2F89
:10058000F0E0EE0FFF1FE459FE4FA591B4918FB735
:10059000F894EC91111108C0D095DE23DC938FBF45
:1005A000DF91CF911F910895DE2BF8CFCF93DF938A
:1005B00090E0FC01EC56FE4F249180589E4FFC01C8
:1005C00084918823D1F090E0880F991FFC01EE59A7
:1005D000FE4FA591B491FC01E459FE4FC591D49111
:1005E00061110EC09FB7F8948C91E22FE0958E2395
:1005F0008C932881E223E8839FBFDF91CF910895F8
:100600008FB7F894EC91E22BEC938FBFF6CF8E501E
:10061000806480937C0080917A00806480937A006B
:1006200080917A0086FDFCCF8091780090917900CE
:1006300008958330910528F0880F991F049701973A
:10064000F1F708953FB7F89480910A0390910B0356
:10065000A0910C03B0910D0326B5A89B05C02F3FB8
:1006600019F00196A11DB11D3FBFBA2FA92F982FD8
:100670008827BC01CD01620F711D811D911D43E0D2
:10068000660F771F881F991F4A95D1F708958F929B
:100690009F92AF92BF92CF92DF92EF92FF924B0167
:1006A0005C010E9422036B017C010E9422036C19F1
:1006B0007D098E099F09683E734081059105A8F365
:1006C00021E0821A9108A108B10888EEC80E83E0E3
:1006D000D81EE11CF11C81149104A104B10429F776
:1006E000FF90EF90DF90CF90BF90AF909F908F9052
:1006F00008952FB7F89460910603709107038091D5
:100700000803909109032FBF08954115510529F45D
:10071000EAE7F0E080818F7780836A307105B9F075
:10072000CB01880F991F880F991F807267706860CE
:10073000682B88E10FB6F894A895809360000FBEEF
:1007400060936000E0E6F0E0808180648083232B8A
:10075000D9F483B7817F846083BFF89483B78160C5
:1007600083BF85B7806685BF8F7D85BF7894889568
:1007700083B78E7F83BF7894452B29F4EAE7F0E0B6
:10078000808180688083089583B7817F846083BF80
:10079000F89483B7816083BF7894889583B78E7F00
:1007A00083BF7894E9CF0895CF93DF931F92CDB79D
:1007B000DEB76983DC01ED91FC910280F381E02DCD
:1007C00041E050E0BE016F5F7F4F09950F90DF91D0
:1007D000CF9108950E947903EFEBF4E0678B708F5F
:1007E000818F928F8AE090E0968B858B87E0809353
:1007F000E20608950E947903EFEBF4E0678B708FB7
:10080000818F928F84E690E0968B858B8BE080932E
:10081000E2060895FC01EE5DFD4FE081DC01AF5D75
:10082000BD4F2C91E21730F4E80FF92FF11D81A193
:1008300090E008958FEF9FEF0895CF93DF93DC0151
:10084000AE5DBD4FEC91EC01CF5DDD4F2881E2172D
:1008500058F421E02E0F2C93E80FF92FF11D81A100
:1008600090E0DF91CF9108958FEF9FEFFACFCF9275
:10087000DF92EF92FF920F931F93CF93DF936C0160
:10088000EB017B01E40EF51E10E000E0CE15DF0564
:1008900061F06991D601ED91FC910190F081E02D1C
:1008A000C6010995080F191FF1CFC801DF91CF913B
:1008B0001F910F91FF90EF90DF90CF900895DC0192
:1008C000AF5DBD4FEC9121E02E0F2C93E80FF92F77
:1008D000F11D61A381E090E0089508952FB7F89489
:1008E00091E0882339F092E0813021F082E080931A
:1008F000870390E080918603892B80938603809103
:100900008703811103C081E0809387032FBF08957F
:10091000CF93CFB7F89480910403811127C0EAE800
:10092000F1E08491EEE9F1E09491E82FF0E0EE0F30
:10093000FF1FEE59FE4FA591B491EC91E92321F4EC
:1009400061E08AE00E94A80261E08AE00E94D6028B
:100950008CB580618CBD8CB580648CBD61E08DE010
:100960000E94D60261E08BE00E94D60280910403CF
:100970008F5F80930403CFBFCF9108952091E10250
:10098000260F3327331F21323105ECF42091D50394
:10099000FC0190E080E0243069F082E00895A091AD
:1009A000E1022191AC014F535D4FA40FB52FB11D52
:1009B0002C930196861798F38091E102680F60935B
:1009C000E10280E0089581E008951092D50381E06E
:1009D0008093D4031092AF0361E082E10E94A802E9
:1009E00061E083E10E94A802E9EBF0E080818E7F64
:1009F000808380818D7F808380E28093B80085E44E
:100A00008093BC000895CF93DF9391E09093C00250
:100A10008823B9F0C091B800D091BA008091BC0091
:100A20008A7B8093BC0060E082E10E94A80260E0C3
:100A300083E10E94A8020E94E504D093BA00C0930B
:100A4000B800DF91CF9108958F929F92AF92BF929D
:100A5000CF92DF92EF92FF920F931F93CF93DF938A
:100A6000D091FE03D13208F0D7C0182FC091FD03FA
:100A70000E9422036B017C018091D50381116BC020
:100A800082E08093D5031093D4038FEF8093D30338
:100A90001092D203D093D103ADEDB3E0E1EBF3E0DC
:100AA00080E0D81391C01092B0038091B003CC0FB6
:100AB000C82BC093B0038091AF03813009F088C088
:100AC0001092AF030E9422036B017C018091B0035E
:100AD0008093BB008091D7039091D803A091D90354
:100AE000B091DA03892B8A2B8B2BA1F00E94220371
:100AF0000091D7031091D8032091D9033091DA03E4
:100B00006C197D098E099F090617170728073907F1
:100B100008F442C08091BC0083FDD8CF85EC80935F
:100B2000BC000E9422036B017C018091D5038230BE
:100B300009F450C08091D3038F3F09F46FC08091B6
:100B4000D303803209F46CC08091D303803309F45D
:100B500069C084E026C08091D7039091D803A0910A
:100B6000D903B091DA03892B8A2B8B2B09F484CF1C
:100B70000E9422038090D7039090D803A090D903BD
:100B8000B090DA036C197D098E099F0986169706C5
:100B9000A806B90608F070CF8091D6030E9403051D
:100BA00085E01092DC031092FE031092DB03DF91CC
:100BB000CF911F910F91FF90EF90DF90CF90BF905A
:100BC000AF909F908F9008959D9191938F5F69CF83
:100BD00085EEA5CF8091D7039091D803A091D9033A
:100BE000B091DA03892B8A2B8B2B09F49ECF0E94BC
:100BF00022030091D7031091D8032091D90330919B
:100C0000DA036C197D098E099F0906171707280753
:100C1000390708F08ACFC0CF81E0C3CF80E0C1CFD1
:100C200082E0BFCF83E0BDCFCF93DF93EC01109282
:100C30008E0310928D031092DC031092FE030E942B
:100C4000E5048AE091E090938C0380938B038BE022
:100C500091E090938A038093890381E08B8398814C
:100C60008093DB039093FD030E94240591E08111A2
:100C700090E0892FDF91CF910895E0918E038091CC
:100C80008D03E81730F4F0E0E157FC4F808190E0ED
:100C900008958FEF9FEF089590918E0380918D03BB
:100CA0002FEF3FEF981748F4E92FF0E0E157FC4FA2
:100CB000208130E09F5F90938E03C9010895809159
:100CC0008D0390918E03891B990B0895CF92DF922B
:100CD000EF92FF920F931F93CF93DF937C01CB0191
:100CE0008A012091DB03222389F0EB016B01C40E02
:100CF000D51ECC15DD0569F06991D701ED91FC9108
:100D00000190F081E02DC7010995F3CF642F0E9477
:100D1000BE04C801DF91CF911F910F91FF90EF901A
:100D2000DF90CF900895CF93DF931F92CDB7DEB7BA
:100D300069832091DB032223F9F02091FE03203206
:100D400058F021E030E0FC013383228390E080E022
:100D50000F90DF91CF9108958091DC03E82FF0E0B0
:100D6000E352FC4F998190838F5F8093DC038093E3
:100D7000FE0381E090E0ECCF61E0CE0101960E949D
:100D8000BE04F7CF90E080E00895FC0183858F3F9B
:100D900011F00C94A8020895AF92BF92CF92DF9207
:100DA000EF92FF920F931F93CF93DF93EC01888113
:100DB0009981892B89F06EBD0DB407FEFDCFBEB4BD
:100DC0008B2DDF91CF911F910F91FF90EF90DF90CE
:100DD000CF90BF90AF9008958885998511E0892BB9
:100DE00009F010E8AA24A394862F812309F0A12CEE
:100DF000062F2C813D814E815F8160E271EA87E0A0
:100E000090E00E945E23F22EB02EE12CC22ED12C57
:100E1000FF2019F0C6010E9419038A85877F09F017
:100E200042C08D858F3F89F0902F912381E009F496
:100E300080E08A1551F0EF85F8898F89992369F14F
:100E40009081892B8083AA24A394E989FA898081DF
:100E5000998D892B8083FF2019F0C6010E94190308
:100E60008E858F3F39F0EB89FC898081988D8923AD
:100E700009F0E12AE989FA899081898D8095892391
:100E800080838E858F3F09F0BE2C88859985892BBC
:100E9000B9F5110F1111BCCF93CF908180958923A3
:100EA0008083A12CD2CFE989FA898081998D892B01
:100EB0008083FF2019F0C6010E9419038D858F3FA2
:100EC00049F0EF85F8898F89902F9123A9F09081BF
:100ED000892B8083E989FA899081898D809589237E
:100EE00080838E858F3F69F2EB89FC898081988DA4
:100EF000892339F2E12AC5CF908180958923E9CFF2
:100F00001695C8CF80918703882361F09FB7F89426
:100F1000209187038091BF02213019F48DBB9FBFC0
:100F200008958FBF089520918703222381F03FB752
:100F3000F89420918703213069F42DB32093BF02E8
:100F40004DB320918603209524232DBB3FBF8CBD3C
:100F50009DBD08953093BF02FACFCF92DF92EF92FA
:100F6000FF920F931F93CF93DF93EC018B016A01E4
:100F7000790188819981892B31F0EA81FB81808117
:100F800091810E94930770E060E0CE010E94C50647
:100F9000F8016081CE010E94CC068601EC0CFD1C9C
:100FA0006FEFCE010E94CC06F80181938F01EE1500
:100FB000FF05B1F761E070E0CE010E94C5068881AF
:100FC0009981892B11F00E94820781E0DF91CF91F6
:100FD0001F910F91FF90EF90DF90CF9008950F93A6
:100FE0001F93CF93DF93EC01062F142F60E08889C5
:100FF0000E94A8028C859D850E9493070EBD00006B
:101000000DB407FEFDCF8EB51EBD00000DB407FE6A
:10101000FDCF1EB50E94820761E088890E94A80268
:10102000812FDF91CF911F910F91089540E861E8E2
:101030008DE994E00C94EF0741E861E88DE994E0D4
:101040000C94EF07AF92BF92CF92DF92EF92FF9294
:101050000F931F93CF93DF936093B3047093B40403
:101060008093B5049093B6046B017C01FF0CCC080F
:10107000DC2C76019B01AC016C2D7C2D8C2D9C2DE4
:1010800003E10E94D025A12CE8E4BE2EF8EECF2E7D
:10109000DD24D394E12CF12C00E010E00E946325C4
:1010A000F22EB32E142FD52FC62FC72ED82EE92EF1
:1010B00000E10E94EB25422F66E88DE994E00E9452
:1010C000EF072F2D3B2D412F5D2F6C2F7C2D8D2D6C
:1010D0009E2D08E00E94EB25422F67E88DE994E001
:1010E0000E94EF074F2D68E88DE994E0DF91CF91E2
:1010F0001F910F91FF90EF90DF90CF90BF90AF9036
:101100000C94EF0747E263EB8DE994E00E94EF0750
:101110004DE16BEB8DE994E00C94EF0746E663EB51
:101120008DE994E00E94EF0749E16BEB8DE994E0D3
:101130000C94EF0740E00C94EF071092BA04109261
:10114000B9046DE18DE994E00E949A08482F4E7F22
:101150006DE98DE994E00C94EF070F931F93CF9303
:1011600008E010E080918803C82FCC0FC11D6CE20D
:101170008DE994E00E949A088C278093880301509F
:10118000110981F7CF911F910F910895CF92DF92AE
:10119000EF92FF92CF93DF936DE18DE994E00E948F
:1011A0009A0890E034E0959587953A95E1F78A3072
:1011B00091050CF042C0FC01EE0FFF1FE80FF91F74
:1011C000E25DFE4FC080D180E2800E2C000CFF0853
:1011D0006EE18DE994E00E949A08D82F66E28DE9CD
:1011E00094E00E949A08C82FD295DF7021E030E089
:1011F00040E050E004C0220F331F441F551FDA9512
:10120000D2F7C701B6010E94F52268EE73E080E0D4
:1012100090E00E94F522213131054105510594F0FD
:101220004C2F486066EA8DE994E0DF91CF91FF9002
:10123000EF90DF90CF900C94EF07CC24CA94DC2C75
:101240007601C6CF4C2F477FEDCFCF93DF9362E17E
:101250008DE994E00E949A08C82F482F62E98DE931
:1012600094E00E94EF07C5FD3AC0C6FF2DC0109262
:10127000B8041092B7048091B9049091BA0462E264
:10128000892B09F463E18DE994E00E949A08C82F44
:10129000D0E060E18DE994E00E949A08482F6DE863
:1012A0008DE994E00E94EF07E091BB04F091BC044B
:1012B000309711F0CE01099540E06DE88DE994E09A
:1012C000DF91CF910C94EF07C3FF09C0E091BD04FB
:1012D000F091BE04309719F0DF91CF910994DF911E
:1012E000CF910895CF93DF93EC01E881F9810084D9
:1012F000F185E02D0995892B69F08A8D9B8D0196EA
:101300009B8F8A8F60E0CE010E949A0890E0DF9167
:10131000CF9108958FEF9FEFFACFCF93DF93EC013A
:1013200063E10E949A0890E02A8D3B8D821B930B0B
:10133000DF91CF9108950F931F93CF93DF93EC012B
:10134000E881F9810084F185E02D0995892BB1F0C0
:101350006DE0CE010E949A08082F60E0CE010E9445
:101360009A08182F402F6DE8CE010E94EF07812FB9
:1013700090E0DF91CF911F910F9108958FEF9FEF34
:10138000F8CFAF92BF92CF92DF92FF920F931F934D
:10139000CF93DF936C015B01EA0162E20E949A083D
:1013A000F82E90E09C012C0F3D1F2F3F310529F0B6
:1013B00020F0CFEFD0E0C81BD90B8501AC0EBD1ECD
:1013C0000A151B0541F0F80141918F0160E8C60143
:1013D0000E94EF07F5CF4C2F4F0D62EAC6010E9425
:1013E000EF07CE01DF91CF911F910F91FF90DF901A
:1013F000CF90BF90AF90089508951F93CF93DF9340
:10140000DC011496ED91FC91E417F50710F490E0DF
:101410001FC0122FEA01FC0181819281208131E0FD
:101420003093DB032093FD031092DC031092FE0344
:10143000DC01ED91FC910280F381E02D0995C81744
:10144000D90729F7812F0E94240591E08111DFCF70
:10145000892FDF91CF911F9108952F923F924F9244
:101460005F926F927F928F929F92AF92BF92CF9234
:10147000DF92EF92FF920F931F93CF93DF935C0164
:101480001B016A01F12CE12CD50114968D919C91E0
:1014900086010E191F098017910708F48C01F501C8
:1014A000D0810E9422032B013C018091D503811140
:1014B00072C0C02F013208F0C0E2F1E0F093D50312
:1014C00021E0C601801B910BE816F90608F420E024
:1014D0002093D4038FEF8093D3031092D2038C0F09
:1014E0008093D103A1E0A093B0038091B003DD0FFE
:1014F000D82BD093B0038091AF03813009F090C016
:101500001092AF030E9422032B013C018091B00393
:101510008093BB008091D7039091D803A091D90309
:10152000B091DA03892B8A2B8B2BA1F00E94220326
:101530002091D7033091D8034091D9035091DA0319
:101540006419750986099709261737074807590747
:1015500008F442C08091BC0083FDD8CFB5ECB093B5
:10156000BC000E9422032B013C018091D5038130F5
:1015700009F45AC08091D2038C1710F4C091D203A1
:10158000A1EBB3E0EFE8F3E080E08C1751F19D911F
:1015900091938F5FFACF8091D7039091D803A09158
:1015A000D903B091DA03892B8A2B8B2B09F47DCFD9
:1015B0000E9422032091D7033091D8034091D90390
:1015C0005091DA03641975098609970926173707B8
:1015D0004807590708F069CF8091D6030E94030598
:1015E000C0E010928E03C0938D03C017110609F05E
:1015F00057C041018E0C9F1CE401CE018819990946
:101600008017910798F5D50111968D919C91DC0179
:10161000ED91FC910284F385E02D09958993EDCF3E
:10162000E5EEE093BC009DCF8091D7039091D80365
:10163000A091D903B091DA03892B8A2B8B2B09F463
:1016400094CF0E9422032091D7033091D803409178
:10165000D9035091DA036419750986099709261789
:1016600037074807590708F080CFB6CFE00EF11EC4
:10167000EC14FD0408F408CF81E0DF91CF911F91B5
:101680000F91FF90EF90DF90CF90BF90AF909F9021
:101690008F907F906F905F904F903F902F90089524
:1016A00080E0EBCFEF92FF920F931F93CF93DF93E6
:1016B000EC018A01790120E041E050E00E94FD093F
:1016C000882359F0A701B801CE01DF91CF911F9176
:1016D0000F91FF90EF900C942D0A80E0DF91CF9155
:1016E0001F910F91FF90EF900895CF93DF9300D05B
:1016F0001F92CDB7DEB7FC0182819381698323E01D
:1017000030E0AE014F5F5F4FBA010097A1F00E9439
:10171000520B29816A8170E090E080E0982F872F3A
:10172000762F6627822B2B81622B0F900F900F90C4
:10173000DF91CF910895848195810E94AD07E9CF13
:101740008F929F92AF92BF92CF92DF92EF92FF92D1
:101750000F931F93CF93DF93EC016AEF0E94750BF9
:101760000B891C8930E020E0C72ED82EE92EFF24FB
:10177000E7FCFA94C01AD10AE20AF30A57E09595F9
:101780008795779567955A95D1F7000F111F221FFE
:10179000331F4B015C01801A910AA20AB30AA5010A
:1017A0009401AD89BE890E941F234B015C01FBE0BF
:1017B000B594A79497948794FA95D1F7A7019601C9
:1017C000C701B6010E94C2249B01AC01ACE0559553
:1017D000479537952795AA95D1F7AF89B88D0E947F
:1017E0001F239B01AC01BEE0559547953795279582
:1017F000BA95D1F7280D391D4A1D5B1D2F87388BEF
:10180000498B5A8BA5E0B0E00E94142360587F4FAB
:101810008F4F9F4F672F782F892F992787FD9A9594
:101820000E94FC2120E030E048EC52E40E94FC23BE
:10183000DF91CF911F910F91FF90EF90DF90CF90AC
:10184000BF90AF909F908F900895CF93DF931F929A
:10185000CDB7DEB741E050E0BE016F5F7F4FFC01C6
:10186000848595850E942D0A882329F089810F900F
:10187000DF91CF9108958FEFFACF40E060EC8DE9D2
:1018800094E00E94EF0740E061E98DE994E00E9456
:10189000EF070E949D0845E861E88DE994E00C940B
:1018A000EF071092E0061092E106E0EEF4E080E02F
:1018B00092E0DF019C011D9221503040E1F7089534
:1018C0004F925F926F927F92AF92BF92CF92DF92D0
:1018D000EF92FF920F931F93CF93DF93CDB7DEB7B5
:1018E00029970FB6F894DEBF0FBECDBF8C017B01E8
:1018F0006A010E9479032B013C0180910F019091B4
:101900001001A09111018F839887A98721E043E0FE
:1019100050E0BE01695F7F4FD8011C968D919C916C
:101920000E94FD09811117C0B12C8B2D29960FB68D
:10193000F894DEBF0FBECDBFDF91CF911F910F9105
:10194000FF90EF90DF90CF90BF90AF907F906F901F
:101950005F904F900895C8010E94250C87FF07C033
:101960006AE070E080E090E00E944703F4CF46E038
:1019700050E0BE016F5F7F4FF801848595850E941E
:101980002D0AB82E882381F26A817B81762767270A
:101990007627CB01B0E0A0E09C01AD0184E0220FEE
:1019A000331F441F551F8A95D1F7AC808A2D90E0D4
:1019B00064E0959587956A95E1F7092E000CAA0BCE
:1019C000BB0BBC01CD01622B732B842B952B0E948A
:1019D000FA2120E030E048EC52E40E94372220E077
:1019E00030E040E855E30E943722D80114966D9309
:1019F0007D938D939C9317976A2D6F7070E090E0A4
:101A000080E0982F872F762F66272D81622B982FC5
:101A1000872F762F66272E81622B0E94FA2120E0E5
:101A200030E048E453E40E94372220E030E040E810
:101A300055E30E94372220E030E048E452E40E945F
:101A40008F23F8016083718382839383C114D1044F
:101A500081F1F601349680E2DF011D928A95E9F763
:101A600084E290E0A0E0B0E0F60180839183A2835D
:101A7000B383D8011A968D919C91B0E0A0E0848345
:101A80009583A683B7838DE090E0A0E0B0E08087E7
:101A90009187A287B387408A518A628A738AF80144
:101AA00080819181A281B381F601848B958BA68B75
:101AB000B78BE114F10409F438CFF701349680E2D2
:101AC000DF011D928A95E9F784E290E0A0E0B0E0A2
:101AD000F70180839183A283B383D80118968D91F7
:101AE0009C91B0E0A0E084839583A683B7838DE0CA
:101AF00090E0A0E0B0E080879187A287B387408A1A
:101B0000518A628A738AF80184819581A681B7819E
:101B1000F701848B958BA68BB78B07CFAB0170E059
:101B200060E0FC01858196810E94600C81E008954F
:101B300050E040E0FC01858196810E94600C81E0CC
:101B400008952F923F924F925F926F927F928F9261
:101B50009F92AF92BF92CF92DF92EF92FF920F933C
:101B60001F93CF93DF93CDB7DEB76F970FB6F8947F
:101B7000DEBF0FBECDBF9A838983798B688BFB0153
:101B8000349680E2DF011D928A95E9F784E290E0C5
:101B9000A0E0B0E0E889F98980839183A283B383D0
:101BA000A981BA8113968D919C91092E000CAA0BE4
:101BB000BB0B84839583A683B78386E090E0A0E087
:101BC000B0E080879187A287B3870E947903A889B4
:101BD000B98950966D937D938D939C935397E9812A
:101BE000FA810580F681E02DFF8FEE8F8385948545
:101BF000A585B685892B8A2B8B2B09F4F1C1CF01E2
:101C00000E94A00B67EF8E8D9F8D0E94750B6A8FCF
:101C10007B8F8C8F9D8FEE8DFF8D87859089A1891D
:101C2000B2896C017D01FF0CCC08DC2C76019C0193
:101C3000AD016C2D7C2D8C2D9C2D345F41405109C4
:101C400061097109810991092987332E2A013B0114
:101C50004C01A22EB32E6A017B018C010E94D82474
:101C6000222E3B8B4C8B5D8B6E8B7F8B888F998F5D
:101C7000AE8DBF8D5C963C915C975B962C91932FBB
:101C8000990F990B492F592F692F792F892F0E946E
:101C9000D8240CE00E94D02529833A874B875C87A3
:101CA0006D877E878F879A8BEE8DFF8D368D258D84
:101CB000932F990F990BA22CBB88CC88DD88EE88D6
:101CC000FF88088D198D492F592F692F792F892F5A
:101CD0000E94D82408E00E94E925A980BA84CB8418
:101CE000DC84ED84FE840F851A890E9406267058D4
:101CF0008F4F9F4FAE8DBF8D5996ED91FC915F0137
:101D0000D12CC12CE12CF12C8701E983BA82CB8242
:101D1000DC82ED82FE820F831887C12CD12CE12C4E
:101D2000F12C00E010E00E94D82401E20E94E92595
:101D300029833A874B875C876D877E878F879A8B4D
:101D4000A0E00E94182609F450C1AE8DBF8D949674
:101D50003C91949793962C91932F990F990BA22CC9
:101D6000BB88CC88DD88EE88FF88088D198D492FC7
:101D7000592F692F792F892F0E94D824222E3B8B2F
:101D80004C8B5D8B6E8B7F8B888F998FEE8DFF8D4B
:101D900032A121A1932F990F990BA984B32C620131
:101DA00073018401492F592F692F792F892F0E94A0
:101DB000D82401E10E94D025A22CBB88CC88DD88E4
:101DC000EE88FF88088D198D0E94062659016A0148
:101DD0007B01382E192F4A8D5B8D6C8D7D8D84E0B3
:101DE00075956795579547958A95D1F780E090E06E
:101DF000A0E1B0E0841B950BA60BB70B2C013D01B5
:101E0000770C4408542C32019C01AD01642D742DD3
:101E1000842D942D0FE10E94D025722E832E942EB6
:101E2000652EB62FA72F582E492EEE8DFF8D30A18F
:101E3000278D932F990F990B492F592F692F792FA0
:101E4000892F03E20E94D025032D0E940626590106
:101E50006A017B018C01272D382D492D562D6B2FC2
:101E60007A2F852D942D0E940F26E5E3AE2EFCE0FF
:101E7000BF2EC12CD12CE12CF12C00E010E00E94EF
:101E8000D824A980BA84CB84DC84ED84FE840F85B9
:101E90001A890E943225298739834A875B876C8794
:101EA0007D878E879F870DE00E94E925922E832EE5
:101EB000742E652E562E472E382E292EAE8DBF8DB0
:101EC0009A963C919A9799962C91932F990F990BEA
:101ED000A92CB82CC72CD62CE52CF42C032D122DB4
:101EE000492F592F692F792F892F0E94D8240E94BA
:101EF000D82409E10E94E925A984B980CA84DB8439
:101F0000EC84FD840E851F850E94062619012A0196
:101F10003B014C01EE8DFF8D30A527A1932F990F2A
:101F2000990B492F592F692F792F892F0E94D82477
:101F300003E10E94E92559016A017B018C019101AD
:101F4000A201B301C4010E94062608E00E94E9250F
:101F500059016A017B01E82F192FAE8DBF8D96962E
:101F60003C91969795962C91932F990F990B492F09
:101F7000592F692F792F892F04E00E94D0250E2F29
:101F80000E9406260E946E2420E030E040E85BE3D9
:101F90000E94372220E030E048EC52E40E94FC230B
:101FA000E889F989648B758B868B978B81E06F96B6
:101FB0000FB6F894DEBF0FBECDBFDF91CF911F915A
:101FC0000F91FF90EF90DF90CF90BF90AF909F90D8
:101FD0008F907F906F905F904F903F902F900895DB
:101FE00060E070E080EC9FE7D5CF60E070E0CB016F
:101FF000D1CF0F931F93CF93DF938C01EB01FB01A4
:10200000349680E2DF011D928A95E9F784E290E040
:10201000A0E0B0E088839983AA83BB83F801838121
:102020009481092E000CAA0BBB0B8C839D83AE837D
:10203000BF838DE090E0A0E0B0E088879987AA8711
:10204000BB870E947903688B798B8A8B9B8BD80125
:1020500015968D919C91FC01438554856585768507
:10206000452B462B472B61F00E94A00B6C8B7D8B80
:102070008E8B9F8B81E0DF91CF911F910F910895FF
:1020800060E070E080EC9FE7F1CF0C94C0260C94E8
:10209000C0260C94C0260C94C026FB0101900020A1
:1020A000E9F73197AF01461B570BDC01ED91FC912D
:1020B0000280F381E02D09948F929F92AF92BF929C
:1020C000EF92FF920F931F93CF93DF93CDB7DEB7BD
:1020D000A1970FB6F894DEBF0FBECDBF7C01FA0109
:1020E000CB0119A2223008F42AE08E010F5D1F4FA8
:1020F000822E912CB12CA12CBF01A50194010E942C
:102100005E23F901CA016A300CF5605DD8016E9357
:102110008D01232B242B252B79F790E080E010975D
:1021200021F0BD01C7010E944D10A1960FB6F89491
:10213000DEBF0FBECDBFDF91CF911F910F91FF90FA
:10214000EF90BF90AF909F908F900895695CDECF25
:1021500060EB71E00C944D10CF93DF93BC018FEFD7
:1021600093E00E944D10EC018FEF93E00E94A810C5
:102170008C0F9D1FDF91CF910895CF92DF92EF9248
:10218000FF9283EB91E00E94AC1060E084E00E943B
:10219000D6026AE070E080E090E00E94470330E001
:1021A00020E050E040E069E070E08EEB92E00E94B9
:1021B0008503C090BC02D090BD028FEFC81AD80A28
:1021C000D092BD02C092BC020D2C000CEE08FF089C
:1021D0002AE0B701A601F7FE0DC06DE28FEF93E094
:1021E0000E94120244275527BA014C195D096E0955
:1021F0007F092AE08FEF93E00E945C108FEF93E05D
:102200000E94A8108091BC029091BD0285979CF01D
:1022100081E0809300011092BD021092BC0261E047
:1022200084E00E94D60260E084E0FF90EF90DF90AF
:10223000CF900C94A802FF90EF90DF90CF9008957C
:102240000F931F93CF93DF93EC018B0169EB71E048
:102250008FEF93E00E944D10A801BE018FEF93E035
:102260000E9472018FEF93E00E94A8108FEF93E01D
:102270000E94A8106AE070E080E090E0DF91CF91CA
:102280001F910F910C944703BF92CF92DF92EF9270
:10229000FF920F931F93CF93DF93EC012D8530E0D6
:1022A0008C85482F50E05093AE044093AD044FEF1F
:1022B0005FEF5093B0044093AF043093B204209387
:1022C000B104CE84DF84E888F98861E00E94D602F8
:1022D00061E08091AD040E94A8028091AF049091CA
:1022E000B0048F3F9807C9F061E00E94D60260E019
:1022F0008091AF040E94A8026AE070E080E090E064
:102300000E94470361E08091AF040E94A8026AE046
:1023100070E080E090E00E9447030E94880462E43D
:102320008DE994E00E949A08823109F0E9C00E9488
:102330001608C701B6010E94220840E06EE88DE948
:1023400094E00E94EF0740E06FE88DE994E00E947E
:10235000EF076CE08DE994E00E949A08482F4360F3
:102360006CE88DE994E00E94EF0744E066EA8DE9AD
:1023700094E00E94EF0744E86DEC8DE994E00E9440
:10238000EF074BE26BE88DE994E00E94EF074FE81E
:1023900069E88DE994E00E94EF070E941C088E0115
:1023A0000D5D1D4FF8018081811142C00E943D0CDE
:1023B0000E94AD08B82E0E94AD0890E0B0E0A0E009
:1023C0007C01DD24CC24FB280E94AD08B82E0E949D
:1023D000AD08C82ADB280E941608C114D104E10404
:1023E000F10421F0C701B6010E94BA1F91E2E3E1B6
:1023F000F0E0909357003491E5E1F0E090935700BE
:102400008491E6E1F0E0909357002491E7E1F0E059
:1024100090935700E49190E0B0E0A0E0DC019927B0
:102420008827B32B8E2B922B8C8F9D8FAE8FBF8FD7
:102430008AEF93E09093BC048093BB0460E08091AA
:10244000B1040E94D6028091B1049091B20482300E
:10245000910509F445C0039709F444C08FEF0E9429
:102460006E048091B1049091B20482309105E1F143
:102470000397E1F18FEF0E944B018AEE93E0909376
:10248000BE048093BD0460E08091B1040E94D60236
:102490008091B1049091B2048230910549F1039783
:1024A00049F18FEF0E946E048091B1049091B204C3
:1024B0008230910509F1039709F18FEF0E944B01DA
:1024C00083E0F80180830E94160881E0DF91CF91BC
:1024D0001F910F91FF90EF90DF90CF90BF900895E4
:1024E00080E0BDCF81E0BBCF80E0C5CF81E0C3CF2E
:1024F00080E0D8CF81E0D6CF80E0E0CF81E0DECFB2
:1025000080E0E4CF6F927F928F929F92AF92BF92C2
:10251000CF92DF92EF92FF920F931F93CF93DF93AF
:10252000CDB7DEB78C016DB67EB661506B3008F06A
:1025300041C0E62FF0E0E156FD4E0C94D224B412D7
:10254000AA128E14EE12D113DA1268148E147214B9
:10255000891496140E94441181112CC0F801ED5D7C
:10256000FD4F81E0808326C0FC01ED5DFD4F81E0E1
:1025700080830E9416089FB7F894809104038823F3
:1025800019F081508093040380910403811105C0E8
:102590008CB58F7B8CBD109287039FBF1092BC04BB
:1025A0001092BB040E940C011092BE041092BD0454
:1025B0000E940C010FB6F8947EBE0FBE6DBEDF9177
:1025C000CF911F910F91FF90EF90DF90CF90BF9030
:1025D000AF909F908F907F906F9008958DB69EB62C
:1025E0000E941C086091CD047091CE048091CF04AC
:1025F0009091D0040E942208E090D104F12C26E0B2
:10260000E216F1040CF0ECC00E94160845EC61EBF8
:102610008DE994E00E94EF074CE067EB8DE994E0D0
:102620000E94EF0726E0E22EF12C6EE18DE994E0A6
:102630000E949A088F7094E0EE0CFF1C9A95E1F7C7
:10264000482F4E296EE98DE994E00E94EF070E9421
:10265000C6080E941C086DE18DE994E00E949A086A
:102660008F70482F40686DE98DE994E00E94EF0774
:102670000E94C6086DE18DE994E00E949A08817F6E
:10268000482F42606DE98DE994E00E94EF0740E039
:1026900060EA8DE994E00E94EF0748E061EA8DE985
:1026A00094E00E94EF0742E169EB8DE994E00E941B
:1026B000EF076EE18DE994E00E949A08482F4B7F66
:1026C0006EE98DE994E00E94EF078091DA04882397
:1026D00009F4A3C00E948E0868019FEDC91A9DEFFE
:1026E000D90AD601EC90F12CC7010196EDB7FEB7DF
:1026F000E81BF90B0FB6F894FEBF0FBEEDBF2DB768
:102700003EB72F5F3F4F5901A701B8016F5D7F4F63
:10271000C9010E944927A701B501C80189960E94F5
:102720004927D6018C91885F8C938091DA048111BE
:1027300004C0F80180A18F5F80A387E2D801919641
:102740008C9391975C963C915C975D962C915D97EC
:102750005E969C915E975F968C915F9792963C9364
:10276000929793962C93939794969C93949795967F
:102770008C93959790968C91909796968C9396972C
:1027800098961C9298970FB6F8949EBE0FBE8DBE79
:1027900056961C921E92559785E0F801ED5DFD4F0F
:1027A0008083D801ED91FC910084F185E02DC80172
:1027B0000995892B09F485C0F801EF5DFD4F208153
:1027C00088EF820FF80187A380E030E0AF01401B63
:1027D000510B4217530724F591A1890F3196F6CF7B
:1027E0003DE0E316F10494F00E9416083CE0E32E6D
:1027F000F12C43EC61EB8DE994E00E94EF074AE095
:1028000067EB8DE994E00E94EF070FCF0E94160856
:1028100086E0E816F10469F7F9CE0E9482085CCFE1
:102820008195D80198968C9361E08DE994E00E949F
:102830009A0883708330E9F062E18DE994E00E94A8
:102840009A0883FF06C048E062E98DE994E00E949F
:10285000EF070E941C080E949D0840E06DE88DE98A
:1028600094E00E94EF0740E062EA8DE994E00E9464
:10287000EF076091E1064091E00650E070E0461BF2
:10288000570B60527B4F8DE994E00E94C109809103
:10289000BD049091BE04892B61F040E460EC8DE9A9
:1028A00094E00E94EF0740E061E98DE994E00E9426
:1028B000EF0743E861E88DE994E00E94EF070E948A
:1028C000510CF801168A158AED5DFD4F86E04ACE5F
:1028D000DC0156961C921E92559789E0F801ED5D39
:1028E000FD4F80838091DA04811110C00E948E0810
:1028F0000E943D0CF80183899489009709F45ACE0F
:10290000968B858BED5DFD4F8AE02CCE0E94820870
:10291000EFCFDC0156961C921E925597F801ED5DA3
:10292000FD4F83E080830E94160844CE0E94510C24
:1029300081E9E82EFF24F3948DE994E00E948D094B
:10294000892B99F0B1E0EB1AF10879F08DE994E068
:102950000E947209E091E00691E09E0F9093E006DC
:10296000F0E0E154FB4F81A3E7CF4091E006809176
:10297000E1064817E1F050E09091E004973269F4E5
:10298000EFEBF4E090E09F012F5B34402417350714
:102990008CF421A1920F3196F6CF481B510960EEBD
:1029A00074E08FEF93E00E9472010E94510C0E942C
:1029B0003D0C2AC09111FBCFC090E104D090E204FD
:1029C000E090E304F090E4049091DA04992349F153
:1029D000C092DB04D092DC04E092DD04F092DE04CD
:1029E0009091E5049093DF04885F8093E106E09185
:1029F000E306F091E406309739F090E0BA01681BE5
:102A0000790B80529B4F09950E94510CF801ED5DA6
:102A1000FD4F8081863009F4CDCDF801168A158AE4
:102A20007DCF8090DB049090DC04A090DD04B0901A
:102A3000DE048C149D04AE04BF0409F0B8CF2091CD
:102A4000DF049091E5042913B2CFCECF0F931F93EB
:102A5000CF93DF93EC018C010D5D1D4FF801808158
:102A6000823040F41E8A1D8A82E0808362E0CE01BB
:102A70000E948212F8018081877F833061F41E8A70
:102A80001D8A84E0808364E0CE01DF91CF911F91A5
:102A90000F910C948212DF91CF911F910F910895A5
:102AA0000F931F93CF93DF938C01EB0188E2FB011F
:102AB00011928A95E9F74BE050E06BEC71E0CE01A2
:102AC0000E9452271B8681E090E0A0E0B0E08C8756
:102AD0009D87AE87BF87F80183819481092E000C02
:102AE000AA0BBB0B888B998BAA8BBB8B8DE090E0DC
:102AF000A0E0B0E08C8B9D8BAE8BBF8B1CA21DA287
:102B00001EA21FA280E090E0A0E2B2EC8C8F9D8F0D
:102B1000AE8FBF8F80E090E0AAEAB2E4888F998FF1
:102B2000AA8FBB8F8AE999E9A9E9BEE388A399A393
:102B3000AAA3BBA3DF91CF911F910F9108950F938B
:102B40001F93CF93DF938C01EB0188E2FB0111927D
:102B50008A95E9F74BE050E063ED71E0CE010E9409
:102B600052271B8681E090E0A0E0B0E08C879D8733
:102B7000AE87BF87F80183819481092E000CAA0BD0
:102B8000BB0B888B998BAA8BBB8B8CE090E0A0E071
:102B9000B0E08C8B9D8BAE8BBF8B1CA21DA21EA2A6
:102BA0001FA21C8E1D8E1E8E1F8E80E090E0A8EC52
:102BB000B2E4888F998FAA8FBB8F80E090E0A0E06D
:102BC000B0E488A399A3AAA3BBA3DF91CF911F91DF
:102BD0000F9108950F931F93CF93DF938C01EB0117
:102BE00088E2FB0111928A95E9F74BE050E06BED2A
:102BF00071E0CE010E9452271B8681E090E0A0E0A8
:102C0000B0E08C879D87AE87BF87F8018381948170
:102C1000092E000CAA0BBB0B888B998BAA8BBB8B44
:102C200086E090E0A0E0B0E08C8B9D8BAE8BBF8BFC
:102C30001CA21DA21EA21FA280E090E0A6E9B3E4A0
:102C40008C8F9D8FAE8FBF8F80E090E8A9E8B4E4B1
:102C5000888F998FAA8FBB8F86EA9BE9A4E4BCE397
:102C600088A399A3AAA3BBA3DF91CF911F910F9132
:102C700008950F931F93CF93DF938C01EB0188E2AC
:102C8000FB0111928A95E9F74BE050E06BED71E0A2
:102C9000CE010E9452271B8681E090E0A0E0B0E0C8
:102CA0008C879D87AE87BF87F80183819481092E29
:102CB000000CAA0BBB0B888B998BAA8BBB8B8DE06E
:102CC00090E0A0E0B0E08C8B9D8BAE8BBF8B1CA204
:102CD0001DA21EA21FA280E090E0A0E2B2EC8C8FA9
:102CE0009D8FAE8FBF8F80E090E0AAEAB2E4888F1C
:102CF000998FAA8FBB8F8AE097EDA3E2BCE388A3EC
:102D000099A3AAA3BBA3DF91CF911F910F9108951F
:102D100085ED8093BC008091D7039091D803A0915A
:102D2000D903B091DA030796A11DB11D23E0B69532
:102D3000A795979587952A95D1F72091BC0024FDFA
:102D400003C01092D50308954091D7035091D80342
:102D50006091D9037091DA03452B462B472B69F319
:102D60000097A105B10541F025E12A95F1F7000092
:102D70000197A109B109E1CF8091D6030C94030515
:102D80001F920F920FB60F9211242F933F934F93E0
:102D90005F936F937F938F939F93AF93BF93EF93C3
:102DA000FF938FEF93E00E94F001FF91EF91BF91AD
:102DB000AF919F918F917F916F915F914F913F91D3
:102DC0002F910F900FBE0F901F9018951F920F928A
:102DD0000FB60F9211242F938F939F93EF93FF932E
:102DE000E0910F04F09110048081E0911504F091BE
:102DF000160482FD1BC09081809118048F5F8F7331
:102E000020911904821741F0E0911804F0E0E1509C
:102E1000FC4F958F80931804FF91EF919F918F91B4
:102E20002F910F900FBE0F901F9018958081F4CFB7
:102E30001F920F920FB60F9211242F933F938F93EF
:102E40009F93AF93BF938091060390910703A09146
:102E50000803B09109033091050326E0230F2D37B5
:102E600058F50296A11DB11D20930503809306031A
:102E700090930703A0930803B093090380910A037A
:102E800090910B03A0910C03B0910D030196A11D2D
:102E9000B11D80930A0390930B03A0930C03B0938E
:102EA0000D03BF91AF919F918F913F912F910F9003
:102EB0000FBE0F901F90189529E8230F0396A11DB0
:102EC000B11DD2CF1F920F920FB60F9211242F93E4
:102ED0003F934F935F936F937F938F939F93AF93A2
:102EE000BF93EF93FF93E0910301F09104010995E3
:102EF000FF91EF91BF91AF919F918F917F916F91D2
:102F00005F914F913F912F910F900FBE0F901F90A7
:102F100018951F920F920FB60F9211242F933F9383
:102F20004F935F936F937F938F939F93AF93BF93D1
:102F3000EF93FF93E0910101F09102010995FF9158
:102F4000EF91BF91AF919F918F917F916F915F9121
:102F50004F913F912F910F900FBE0F901F9018959A
:102F60001F920F920FB60F9211248F930FB6F89401
:102F7000A895809160008861809360001092600045
:102F80000FBE8F910F900FBE0F901F9018951F923C
:102F90000F920FB60F9211242F933F934F935F938D
:102FA0006F937F938F939F93AF93BF93EF93FF9311
:102FB0008091B900887F803609F44AC0F0F58832E4
:102FC00009F4A7C018F5803109F49BC0B8F4882330
:102FD00009F4F9C0883009F494C0FF91EF91BF91D2
:102FE000AF919F918F917F916F915F914F913F91A1
:102FF0002F910F900FBE0F901F901895883109F4F4
:1030000088C0803251F78093D30314C0803409F410
:103010009DC040F48033B9F38833F9F68093D3032D
:1030200085ECB0C0803509F485C0883509F496C0B8
:10303000883499F60E948816D0CF883909F48CC05C
:1030400038F5883729F050F4883611F0803729F6A2
:1030500083E08093D5031092030357C0883809F4A6
:103060007BC0803919F0803809F0B7CF8091030315
:10307000803208F071C0E091030381E08E0F8093ED
:1030800003038091BB00F0E0ED51FD4F80833DC014
:10309000803B39F0E0F4803A09F479C0883A09F0CD
:1030A0009CCF84E08093D5031092E2021092E1025B
:1030B000E0918B03F0918C0309958091E1028111DD
:1030C0000FC081E08093E1021092C10209C0803CF0
:1030D00009F4A6CF883C09F4A3CF883B09F07DCF43
:1030E000E091E20281E08E0F8093E202F0E0EF5384
:1030F000FD4F80818093BB009091E2028091E102BC
:1031000029C08091B0038093BB0085EC8093BC0004
:1031100064CF9091D2038091D103981758F5E09134
:10312000D20381E08E0F8093D203F0E0EF54FC4F86
:103130008081E9CFE091D20381E08E0F8093D203AA
:103140008091BB00F0E0EF54FC4F80839091D2035C
:103150008091D1039817C8F285E8D8CFE091D203C7
:1031600081E08E0F8093D2038091BB00F0E0EF549A
:10317000FC4F80838091D40381115CCF81E08093E8
:10318000AF0384EA8093BC001092D50326CF85EC70
:103190008093BC001092D50380910303803230F4F9
:1031A000E0910303F0E0ED51FD4F108260910303C5
:1031B00070E0E0918903F0918A0383EE92E0099533
:1031C000109203030ACF1092D30334CF0F931F93AF
:1031D000CF93DF9300D0CDB7DEB76A83E091F706D7
:1031E000F091F806309789F0898321E042E050E0C1
:1031F000BE016F5F7F4FCF010E94FD090F900F90BE
:10320000DF91CF911F910F9108958F77898300915E
:10321000F9061091FA06D8018D919C911197892B8E
:1032200039F01296ED91FC91808191810E94930773
:1032300070E060E0C8010E94C5066981C8010E9473
:10324000CC066A81C8010E94CC0661E070E0C8012A
:103250000E94C506F80180819181892B79F20E9434
:103260008207CCCFCF93DF93C1E2D7E08770886E1F
:103270008883E0E2F7E0962F9770990F990F990FE6
:103280008081807C242F2770892B822B808395E07E
:10329000440F551F9A95E1F787FB882780F9482B43
:1032A000660F771F660F771F642B85EF0E94E61865
:1032B0008881682F677090E2699FB0011124282FE0
:1032C000269526952695277094E0299F9001112434
:1032D000622B8295869586958370682B84EFDF91AB
:1032E000CF910C94E618CF93DF9300D0CDB7DEB723
:1032F000E091F706F091F806898322E030E0AE0114
:103300004F5F5F4FBA01309751F0CF010E94520BCF
:1033100089819A810F900F90DF91CF9108958091CC
:10332000F9069091FA060E94AD07F2CFCF93DF9392
:10333000EFEFF3E01382128288EE93E0A0E0B0E0BA
:1033400084839583A683B78320E531E0318320838E
:1033500025EC30E03587248724EC30E0378726875A
:1033600020EC30E0318B208B21EC30E0338B228B52
:1033700022EC30E0358B248B26EC30E0378B268B2B
:10338000118E128E138E148EEDE9F4E013821282E8
:1033900022E631E03183208320E5248721E0258760
:1033A0002CE934E0378726872AE030E0318B208B08
:1033B00029E030E0338B228B22E030E0358B248B08
:1033C000168A178A108E118E138E128E158E148EF9
:1033D000178E168E11A210A21482158216821782E1
:1033E000EFEBF4E01382128224E731E03183208393
:1033F0002AE0248722E0258740E45FE468EA76E358
:1034000046875787608B718B27E0228B20ED37E052
:10341000348B238B168A158A178A108E118E128E82
:10342000138E148E158E168E178E10A21092E00633
:103430001092E1061092E20614821582168217821B
:10344000E9EEF6E01382128284839583A683B78324
:1034500086E891E091838083A2E2B7E01D961C92FA
:103460001E921C971F961C921E921E9751961C929C
:103470001E925097C5EFD6E01B821A821D821C82D5
:103480001B861C861D861E861BA61CA6F983E88348
:1034900087E090E00E942426FC0186EA91E0918377
:1034A000808388E191E094838383D683C583FF83FF
:1034B000EE8387E090E00E942426FC0188E991E0F9
:1034C0009183808314821382D683C583F987E8872A
:1034D000F093E806E093E706DF91CF910895CF934C
:1034E000DF93CDB7DEB7CC58D1090FB6F894DEBF65
:1034F0000FBECDBF789484B5826084BD84B58160F1
:1035000084BD85B5826085BD85B5816085BD8091AE
:103510006E00816080936E00109281008091810026
:10352000826080938100809181008160809381001E
:10353000809180008160809380008091B1008460E0
:103540008093B1008091B00081608093B000809141
:103550007A00846080937A0080917A008260809300
:103560007A0080917A008E7F80937A0080917A0031
:10357000806880937A001092C100E0910F04F0916E
:10358000100482E08083E0910B04F0910C0410821F
:10359000E0910D04F0910E0488E0808310921704EE
:1035A000E0911304F091140486E08083E09111040B
:1035B000F0911204808180618083E0911104F09188
:1035C0001204808188608083E0911104F0911204DC
:1035D000808180688083E0911104F09112048081E1
:1035E0008F7D808382EE91E00E94AC1080E49EE0AB
:1035F000AFECB9E18093CD049093CE04A093CF04B7
:10360000B093D00487E08093D1048FEB94E00E94C4
:103610004411811105C086EF91E00E94AC10FFCFEC
:1036200080E291E19093E4068093E3068DEB90E1D4
:103630009093E6068093E50660E272E08FEF93E0F8
:103640000E944D104091DB045091DC046091DD0438
:103650007091DE0420E18FEF93E00E945C108FEF09
:1036600093E00E94A8106AE272E08FEF93E00E945C
:103670004D104091CD045091CE046091CF047091D3
:10368000D0042AE08FEF93E00E945C108FEF93E06C
:103690000E94A8108091DF048823A1F065E372E006
:1036A0008FEF93E00E944D104091DF0450E070E0F6
:1036B00060E02AE08FEF93E00E945C108FEF93E0D0
:1036C0000E94A8109091E0068091E1069817E1F120
:1036D0006DE372E08FEF93E00E944D100091E106E0
:1036E000C090E006D12C10E0C01AD10A00521B4F46
:1036F000412C512C32010D2C000CEE08FF084C140B
:103700005D046E047F04E4F45801D8018C9180318B
:1037100028F460E38FEF93E00E9412020F5F1F4FC7
:10372000F501408150E070E060E020E18FEF93E030
:103730000E945C10FFEF4F1A5F0A6F0A7F0ADFCF0B
:103740008FEF93E00E94A81064E170E080E090E0C9
:103750000E94470380912E0790912F07009711F048
:103760000E94C02686E090E00E94242628E3DC0127
:103770002C9329EE36E012963C932E9311971396D4
:103780001C92139720E230E015963C932E931497E9
:1037900090932F0780932E070E941406882309F424
:1037A000E7C18AEB898321E041E050E0FE013196D8
:1037B0007F01BF0180912E0790912F070E94FD0984
:1037C000882309F4D5C164E170E080E090E00E94B4
:1037D000470381EE898388E08A831B8221E043E0EE
:1037E00050E0B70180912E0790912F070E94FD09AC
:1037F000882309F4BDC182E297E00E94250C87FF6F
:1038000007C06AE070E080E090E00E944703F3CFD9
:1038100082E297E00E94250C83FFAAC180913207C3
:1038200090913307009739F0DC01ED91FC91028013
:10383000F381E02D09958091300790913107009731
:1038400039F0DC01ED91FC910280F381E02D0995C6
:1038500087E090E00E942426FC0184E291E09183BD
:10386000808380E290E19483838302E217E01683F1
:103870000583F0933307E093320787E090E00E94DE
:103880002426FC0186E191E09183808381E290E12E
:103890009483838316830583F0933107E093300785
:1038A000C090F906D090FA06C114D10409F067C19E
:1038B0008091F7069091F806009711F00E94C026BB
:1038C00086E090E00E9424262091F5063091F606CD
:1038D00047E7FC01408332832183138220E230E0FA
:1038E000358324839093F8068093F7060E9414068C
:1038F00081115DC18091000790910107A09102079D
:10390000B0910307892B8A2B8B2B41F044E050E0C8
:1039100064E070E082E090E00E94321961E084E0AF
:103920000E94D60260E084E00E94A80290E0292E66
:1039300090E0392E8091D4049091D504892B89F19F
:103940000E9479038B019C018091D6049091D70449
:10395000A091D804B091D9044091D4045091D504D9
:1039600070E060E0081B190B2A0B3B0B04171507CE
:1039700026073707B0F0840F951FA61FB71F809347
:10398000D6049093D704A093D804B093D90460913F
:10399000E2061092D5041092D4048FEB94E00E94BA
:1039A00082128091E2068D7F813041F4E091E5063C
:1039B000F091E606309709F4C2C1099580910001A3
:1039C000882309F4C9C08091E7069091E806DC01DC
:1039D000ED91FC910680F781E02D62E673E0099598
:1039E0004AE153E06EE373E082E297E00E94600CEC
:1039F0008091760390917703A0917803B091790339
:103A00008093160390931703A0931803B0931903A0
:103A10008091520390915303A0915403B0915503A8
:103A20008093120390931303A0931403B093150390
:103A300080912E0390912F03A0913003B091310318
:103A400080930E0390930F03A0931003B093110380
:103A50008FE00E940703482EB92E8EE00E940703D4
:103A6000682E592EEBEAF1E08491E7E9F1E0D49079
:103A7000E3E8F1E0C490CC2009F46EC181110E940A
:103A80007F02EC2DF0E0EE0FFF1FEA58FE4FA591EC
:103A9000B4918C91D82281E0C12C09F480E0D82E19
:103AA0006091160370911703809118039091190388
:103AB0008E0107581F4F21E045E00E94011F882E0C
:103AC000792E6091120370911303809114039091E9
:103AD0001503085F1F4F21E044E00E94011FA82E3C
:103AE000992E60910E0370910F03809110039091B5
:103AF00011030A5F1F4F22E044E00E94011FBF92A2
:103B00004F925F926F92CF92DF927F928F929F92AD
:103B1000AF929F938F9387E492E09F938F93FF924E
:103B2000EF920E946127C7010E94AC1064E670E02A
:103B300080E090E00E944703B7018FEB94E00E9481
:103B40004D108FEB94E00E942615109200010FB6E5
:103B5000F894DEBF0FBECDBF2114310409F4EACEC4
:103B60000E94DC01882309F4E1CE0E940000DECE31
:103B70006AE070E080E090E00E944703F9CFD60150
:103B80001B968C918F3F41F061E00E94D60261E06C
:103B9000F60183850E94A802D6018D919C91892B04
:103BA00009F495C00E94880481E0F601838F80911A
:103BB000F7069091F806009709F4B4C020ED298328
:103BC00021E030E0A701B7010E94520B898190E00B
:103BD000B0E0A0E08093000790930107A093020754
:103BE000B093030788359105A105B10509F082CE90
:103BF00088E80E94731990930907809308078AE860
:103C00000E94731990930B0780930A078CE80E9417
:103C1000731990930D0780930C078EE80E94731917
:103C200090930F0780930E0780E90E947319909379
:103C300011078093100782E90E947319909313076C
:103C40008093120784E90E9473199093150780935B
:103C5000140786E90E94731990931707809316073B
:103C600088E90E94731990931907809318078AE9CD
:103C70000E94731990931B0780931A078CE90E9486
:103C8000731990931D0780931C078EE90E94731986
:103C900090931F0780931E07809100079091010762
:103CA000A0910207B0910307892B8A2B8B2B41F03F
:103CB00050E040E070E060E085E090E00E94321962
:103CC00064E670E080E090E00E94470313CE61E07C
:103CD000F60184850E94D602D6011A968C911A9715
:103CE0008B7FE1F460E01C968C910E94A802D601C3
:103CF0001D968C918F3F41F061E00E94D60261E0F9
:103D0000F60185850E94A802D6011E968C918F3FF0
:103D100009F44ACF60E00E94D60246CF61E0F60186
:103D20008485E3CF80ED898321E030E0A701B701EE
:103D30008091F9069091FA060E94AD0747CF109244
:103D4000D5041092D404F9E0F093E20669E08FEB19
:103D500094E00E94821232CED12CC12CA1CECF93FE
:103D6000DF93C091F906D091FA06209749F08A8135
:103D70009B81009711F00E94C026CE010E94C026B0
:103D80008091F7069091F806009711F00E94C026E6
:103D90008091FB069091FC06009739F0DC01ED91D3
:103DA000FC910280F381E02D09958091FD069091B0
:103DB000FE06009739F0DC01ED91FC910280F38161
:103DC000E02D09958091300790913107009739F0E7
:103DD000DC01ED91FC910280F381E02D0995809149
:103DE000320790913307009749F0DC01ED91FC9187
:103DF0000280F381E02DDF91CF910994DF91CF9183
:103E00000895EF920F931F93CF93DF93E80134E06F
:103E100047FD34E1042E000C550B57FF03C05195AC
:103E200041955109E32E022F242FAE010E94C31F9A
:103E3000CE01DF91CF911F910F91EF9008958F9256
:103E40009F92AF92BF92CF92DF92EF92FF92CF9369
:103E5000DF93EC01688179818A819B81611571050D
:103E60008105910521F464E279ED8BE597E02DE180
:103E700033EF41E050E00E94F52249015A019B01D5
:103E8000AC01A7EAB1E40E9414236B017C01ACEE03
:103E9000B4EFA50194010E942223C60ED71EE81E8E
:103EA000F91EF7FE06C081E0C81AD108E10880E8D3
:103EB000F80AC882D982EA82FB82C701B6019F77DD
:103EC000DF91CF91FF90EF90DF90CF90BF90AF90B8
:103ED0009F908F9008958F929F92AF92BF92CF92B2
:103EE000DF92EF92FF92609105017091060180913F
:103EF000070190910801611571058105910521F473
:103F000064E279ED8BE597E02DE133EF41E050E09D
:103F10000E94F52249015A019B01AC01A7EAB1E4D4
:103F20000E9414236B017C01ACEEB4EFA501940157
:103F30000E942223C60ED71EE81EF91EF7FE06C0F9
:103F400081E0C81AD108E10880E8F80AC0920501AA
:103F5000D0920601E0920701F0920801C701B60174
:103F60009F77FF90EF90DF90CF90BF90AF909F90A2
:103F70008F90089560930501709306018093070167
:103F8000909308010895A9E0B0E0E9ECFFE10C94FA
:103F90002D236A01F22EB02E102FFBE3AF2EA016B8
:103FA00008F41BE31F5F012F27E0AE014F5F5F4F57
:103FB0000E942221BC018981982F9970913009F4C7
:103FC0003FC09BE2E1FC04C09E2D9170E0FC3AC032
:103FD0005E2D5071E82FE87083FF46C084E0911198
:103FE00001C083E0EF2DE81B8F1508F0E0E0D6015B
:103FF0008E2F20E2552351F1992329F0D6019C936D
:10400000C60101966C0196012D5F3F4FE2FE24C070
:104010008EE4D6018C9391E411969C93119712969D
:104020008C93D9018E2F90E281111BC0E20FF32FE8
:10403000F11D10828EEF9FEF2996ECE00C9449233E
:104040009DE2C6CF90E2C4CF2D9381508111FCCF69
:10405000CE0ED11CE0E0D0CF8EE6D6018C9391E657
:10406000DBCF9D938150E0CF482F447082FF3DC04D
:1040700084E0911101C083E08F1510F4EF2DE81B4F
:10408000D6018E2F20E2552309F1992329F0D6017C
:104090009C93C60101966C0196012D5F3F4FE2FE95
:1040A0001BC089E4D6018C938EE411968C931197F2
:1040B00086E412968C93D9018E2F90E2882309F41E
:1040C000B5CF9D938150FACF2D9381508111FCCFB4
:1040D000CE0ED11CE0E0D9CF89E6D6018C938EE6D6
:1040E00011968C93119786E6E4CF9B0177FF02C06F
:1040F00030E020E0A1E0B0E0911102C0B0E0A0E02B
:10410000F9013196AE0FBF1F8B2C912CBB2009F407
:1041100061C05401EFEFAE1ABE0AAA0DBB1DFA161C
:104120001B0619F014F04F2D4A1B511188C0E3FCF7
:1041300059C07601A42FB0E2A1114FC0C40ED11C0A
:10414000992309F45BC040E0D6011196F6019083F3
:104150006D01552309F448C0012F060F9A81582F8D
:10416000507184FF03C0913309F4015010160CF014
:1041700047C0093008F008E0EEE2FE2E5B01A01A0D
:10418000B10885019194819491082F3F320729F459
:10419000D601FC92F60131966F016217730794F114
:1041A000021713077CF5DB01A21BB30BAA24A3940F
:1041B000B12CAC0EBD1EAA0DBB1D11968C912150C9
:1041C0003109D601119628153905F4F0F6018083DE
:1041D0006D01DBCFB12CA12CA0CFF701B1937F01F2
:1041E000A150AACF9111B0CFD601942F50E302C0B5
:1041F0005D9391509111FCCFC40ED11C40E0ACCF27
:1042000001E0BACF80E3DBCF6217730731F4963356
:1042100088F4953311F4552369F0F6018083FD018C
:10422000842F90E2811108C0A40FB11D1C9290E070
:1042300080E002CF81E3F1CF91938150F3CF9111D0
:1042400083CF8ACF283008F027E03327DA01990F8F
:10425000311D87FD916000966105710539F432606A
:104260002E5F3D9330E32A95E1F708959F3F30F0AC
:1042700080387105610509F03C5F3C5F3D939130EA
:1042800008F08068911DDF93CF931F930F93FF92E7
:10429000EF92192F987F9695E92F96959695E90FAD
:1042A000FF27EE53FF4F99273327EE24FF24A70162
:1042B000E70105900894079428F4360FE71EF81ECE
:1042C000491F511D660F771F881F991F0694A1F77C
:1042D0000590079428F4E70EF81E491F561FC11DCC
:1042E000770F881F991F661F0694A1F70590079402
:1042F00028F4F80E491F561FC71FD11D880F991F9C
:10430000661F771F0694A1F70590079420F4490FC4
:10431000561FC71FD81F990F661F771F881F069447
:10432000A9F784911095177041F0D695C7955795C8
:104330004795F794E7941A95C1F7E8E6F0E068949A
:104340001590159135916591959105907FE2739542
:10435000E118F10A430B560BC90BD009C0F7E10C69
:10436000F11E431F561FC91FD01D7EF4703311F478
:104370008A95E6CFE894015030F0080F0AF4002740
:10438000021708F4202F2395022F7A3328F079E3BF
:104390007D932A95E9F710C07D932A9589F60694B6
:1043A00097956795379517951794E118F10A430B80
:1043B000560BC90BD00998F023957E9173957A33EB
:1043C00008F070E37C932013B8F77E9170617D93C1
:1043D00030F0839571E37D9370E32A95E1F7112422
:1043E000EF90FF900F911F91CF91DF91992787FD5B
:1043F00090950895E89409C097FB3EF490958095B8
:10440000709561957F4F8F4F9F4F9923A9F0F92F9A
:1044100096E9BB279395F695879577956795B79518
:10442000F111F8CFFAF4BB0F11F460FF1BC06F5FFE
:104430007F4F8F4F9F4F16C0882311F096E911C010
:10444000772321F09EE8872F762F05C0662371F031
:1044500096E8862F70E060E02AF09A95660F771F45
:10446000881FDAF7880F9695879597F908950E9427
:104470004A220C94BB220E94AD2238F00E94B42242
:1044800020F0952311F00C94A4220C94AA2211245C
:104490000C94EF220E94CC2270F3959FC1F3950FEC
:1044A00050E0551F629FF001729FBB27F00DB11DB8
:1044B000639FAA27F00DB11DAA1F649F6627B00D48
:1044C000A11D661F829F2227B00DA11D621F739F31
:1044D000B00DA11D621F839FA00D611D221F749F3F
:1044E0003327A00D611D231F849F600D211D822F86
:1044F000762F6A2F11249F5750409AF0F1F08823AD
:104500004AF0EE0FFF1FBB1F661F771F881F9150D9
:104510005040A9F79E3F510580F00C94A4220C94C2
:10452000EF225F3FE4F3983ED4F386957795679545
:10453000B795F795E7959F5FC1F7FE2B880F911D03
:104540009695879597F9089597F99F6780E870E0A9
:1045500060E008959FEF80EC089500240A941616F9
:10456000170618060906089500240A941216130661
:10457000140605060895092E0394000C11F48823EF
:1045800052F0BB0F40F4BF2B11F460FF04C06F5F0B
:104590007F4F8F4F9F4F089557FD9058440F551FE1
:1045A00059F05F3F71F04795880F97FB991F61F0B5
:1045B0009F3F79F087950895121613061406551F2C
:1045C000F2CF4695F1DF08C0161617061806991F98
:1045D000F1CF86957105610508940895E894BB278D
:1045E00066277727CB0197F90895052E97FB1EF4D0
:1045F00000940E940C2357FD07D00E945E2307FC05
:1046000003D04EF40C940C23509540953095219591
:104610003F4F4F4F5F4F08959095809570956195EE
:104620007F4F8F4F9F4F08950E948023A59F900D2D
:10463000B49F900DA49F800D911D11240895B7FF84
:104640000C9414230E941423821B930B08952F9221
:104650003F924F925F926F927F928F929F92AF9212
:10466000BF92CF92DF92EF92FF920F931F93CF935F
:10467000DF93CDB7DEB7CA1BDB0B0FB6F894DEBFF6
:104680000FBECDBF09942A88398848885F846E841C
:104690007D848C849B84AA84B984C884DF80EE8066
:1046A000FD800C811B81AA81B981CE0FD11D0FB66F
:1046B000F894DEBF0FBECDBFED010895A1E21A2E22
:1046C000AA1BBB1BFD010DC0AA1FBB1FEE1FFF1FB6
:1046D000A217B307E407F50720F0A21BB30BE40B06
:1046E000F50B661F771F881F991F1A9469F760954D
:1046F0007095809590959B01AC01BD01CF01089507
:10470000A29FB001B39FC001A39F700D811D112412
:10471000911DB29F700D811D1124911D0895505857
:10472000BB27AA270E94A7230C94BB220E94AD227C
:1047300038F00E94B42220F039F49F3F19F426F497
:104740000C94AA220EF4E095E7FB0C94A422E92F26
:104750000E94CC2258F3BA176207730784079507A3
:1047600020F079F4A6F50C94EE220EF4E0950B2ED1
:10477000BA2FA02D0B01B90190010C01CA01A001B3
:104780001124FF27591B99F0593F50F4503E68F10E
:104790001A16F040A22F232F342F4427585FF3CF4F
:1047A000469537952795A795F0405395C9F77EF420
:1047B0001F16BA0B620B730B840BBAF09150A1F069
:1047C000FF0FBB1F661F771F881FC2F70EC0BA0FEF
:1047D000621F731F841F48F4879577956795B79577
:1047E000F7959E3F08F0B0CF9395880F08F0992772
:1047F000EE0F9795879508950E9410240C94BB2284
:104800000E94B42258F00E94AD2240F029F45F3F8C
:1048100029F00C94A42251110C94EF220C94AA229A
:104820000E94CC2268F39923B1F3552391F3951B91
:10483000550BBB27AA2762177307840738F09F5FC1
:104840005F4F220F331F441FAA1FA9F335D00E2E2E
:104850003AF0E0E832D091505040E695001CCAF79B
:104860002BD0FE2F29D0660F771F881FBB1F26175E
:1048700037074807AB07B0E809F0BB0B802DBF0135
:10488000FF2793585F4F3AF09E3F510578F00C9404
:10489000A4220C94EF225F3FE4F3983ED4F3869574
:1048A00077956795B795F7959F5FC9F7880F911D25
:1048B0009695879597F90895E1E0660F771F881F11
:1048C000BB1F621773078407BA0720F0621B730BC4
:1048D000840BBA0BEE1F88F7E095089597FB16F44A
:1048E0000E94B2240C947524E894F92F96EBFF23D0
:1048F00081F0121613061406440B9395F6958795CE
:104900007795679557954040FF23B9F71BC09927C6
:104910000895882351F49850D2F7872B762F652F6E
:10492000542F432F322F20E0B1F312161306140632
:10493000440B88233AF09A95440F551F661F771F42
:10494000881FCAF755234AF4440F551F11F460FF1E
:1049500004C06F5F7F4F8F4F9F4F880F969587954D
:1049600097F908959095809570956095509540952C
:10497000309521953F4F4F4F5F4F6F4F7F4F8F4F78
:104980009F4F0895DB018F939F930E941423BF9143
:10499000AF91A29F800D911DA39F900DB29F900D8E
:1049A00011240895EE0FFF1F0590F491E02D099456
:1049B000DF93CF931F930F939A9DF02D219FF00DBE
:1049C0008B9DF00D8A9DE02DF10D039FF00D029F50
:1049D000E00DF11D4E9DE00DF11D5E9DF00D4F9D12
:1049E000F00D7F936F93BF92AF925F934F93D5017A
:1049F0000E9480238B01AC01D7010E948023EB0130
:104A0000E80FF91FD6010E9427252F913F91D6016B
:104A10000E948023C60FD71FE81FF91FAF91BF91D7
:104A20000E9427252F913F910E948023C60FD71FF8
:104A3000E81FF91FD6010E948023E60FF71F980197
:104A4000BE01CF010F911F91CF91DF9108950E9478
:104A50008023460F571FC81FD91F08F431960895A9
:104A6000689401C0E894F92FF12B12F00C9464259E
:104A7000A0E0B0E0EEE3F5E20C942D23092E0594BE
:104A800022F40E94C025112392F4F0E80F26FFEFD4
:104A9000E094F09400951095B094C094D094A194B3
:104AA000BF0ACF0ADF0AEF0AFF0A0F0B1F0B0E9493
:104AB0006F2507FC0E94C025CDB7DEB7ECE00C9453
:104AC0004923689401C0E8948F929F92CF93DF931B
:104AD0000E946F25DF91CF919F908F900895882439
:104AE0009924F401E401B0E49F93AA279A158B045A
:104AF0009C04ED05FE05CF05D007A10798F4AD2F66
:104B0000DC2FCF2FFE2FE92D982C892E982F872F61
:104B1000762F652F542F432F322F2227B85031F78D
:104B2000BF9127C01B2EBF91BB27220F331F441FED
:104B3000551F661F771F881F991F881C991CEE1F21
:104B4000FF1FCC1FDD1FAA1FBB1F8A149B04EC058F
:104B5000FD05CE05DF05A007B10748F08A189B08C0
:104B6000EC09FD09CE09DF09A00BB10B21601A94F5
:104B7000E1F62EF49401AF01BE01CD01000C0895C1
:104B800060957095809590953095409550952195BC
:104B90003F4F4F4F5F4F6F4F7F4F8F4F9F4F089546
:104BA000002E083090F0982F872F762F652F542FE6
:104BB000432F322F22270850F4CF220F331F441FD8
:104BC000551F661F771F881F991F0A95B2F7002D82
:104BD000089597FD1094002E083098F00850232F68
:104BE000342F452F562F672F782F892F912DF4CFF3
:104BF0001594979587957795679557954795379528
:104C000027950A95AAF71124002D08952A0D3B1D1A
:104C10004C1D5D1D6E1D7F1D801F911F08952A195B
:104C20003B094C095D096E097F09800B910B0895C2
:104C30000024A7FD00942A173005400550056005A3
:104C400070058005900508950F931F93CF93DF9310
:104C50008230910510F482E090E0E0913607F09107
:104C6000370730E020E0B0E0A0E0309799F421155C
:104C7000310509F44AC0281B390B24303105D8F519
:104C80008A819B816115710589F1FB019383828380
:104C9000FE0111C0408151810281138148175907DB
:104CA000E0F04817590799F4109761F012960C93A9
:104CB000129713961C933296CF01DF91CF911F91DB
:104CC0000F9108950093360710933707F4CF2115FD
:104CD000310551F04217530738F0A901DB019A0161
:104CE000BD01DF01F801C1CFEF01F9CF9093370784
:104CF00080933607CDCFFE01E20FF31F819391938E
:104D00002250310939832883D7CF2091340730913D
:104D10003507232B41F420910B0130910C01309386
:104D20003507209334072091090130910A0121159C
:104D3000310541F42DB73EB740910D0150910E0160
:104D4000241B350BE0913407F0913507E217F30788
:104D5000A0F42E1B3F0B2817390778F0AC014E5FEB
:104D60005F4F2417350748F04E0F5F1F50933507EC
:104D700040933407819391939FCFF0E0E0E09CCF84
:104D8000CF93DF930097E9F0FC01329713821282F0
:104D9000A0913607B0913707ED0130E020E0109781
:104DA000A1F420813181820F931F2091340730912B
:104DB00035072817390709F061C0F0933507E093EC
:104DC0003407DF91CF910895EA01CE17DF07E8F5A8
:104DD0004A815B819E0141155105B1F7E901FB83D1
:104DE000EA8349915991C40FD51FEC17FD0761F46F
:104DF000808191810296840F951FE90199838883B0
:104E0000828193819B838A83F0E0E0E012968D910A
:104E10009C9113970097B9F52D913C911197CD0175
:104E20000296820F931F209134073091350728177F
:104E3000390739F6309751F5109237071092360737
:104E4000B0933507A0933407BCCFD383C28340818E
:104E50005181840F951FC817D90761F44E5F5F4FCA
:104E600088819981480F591F518340838A819B8192
:104E7000938382832115310509F0B0CFF093370772
:104E8000E09336079ECFFD01DC01C0CF1382128272
:104E9000D7CFFB01DC0102C001900D924150504080
:104EA000D8F70895FB01DC014150504048F00190D3
:104EB0000D920020C9F701C01D9241505040E0F70B
:104EC0000895AEE0B0E0E7E6F7E20C9435230D89F3
:104ED0001E8986E08C831A8309838FEF9FE79E8368
:104EE0008D83AE01475E5F4F6F89788DCE0101964D
:104EF0000E9484272F813885020F131FF80110822A
:104F00002E96E4E00C945123ABE0B0E0EAE8F7E23F
:104F10000C9427237C013B018A01FC011782168235
:104F2000838181FFC8C1CE0101965C01F7019381A5
:104F3000F30193FD859193FF81913F01882309F44B
:104F400053C1853239F493FD859193FF81913F01DF
:104F5000853229F4B70190E00E947429E7CF912CA3
:104F6000212C312CFFE1F31538F08B3211F190F444
:104F7000803209F1833229F137FC3CC020ED280F43
:104F80002A3050F536FE20C08AE0989E200D11246C
:104F9000922E06C08D3291F0803371F7689430F80C
:104FA000F30193FD859193FF81913F018111DACF48
:104FB00021C0689431F8689432F8F2CF689433F8DD
:104FC000EFCF689434F8ECCFEAE02E9E200D112448
:104FD000222E689435F8E4CF8E3229F436FC04C1D1
:104FE000689436F8DDCF8C3619F4689437F8D8CF4A
:104FF0008836B1F2982F9F7D95549330E0F0833638
:10500000A1F18337C1F1833509F063C02801F2E0D3
:105010004F0E511CF801C080D180692D70E036FC24
:1050200002C06FEF7FEFC6010E945E294C016894B9
:1050300037F882010AC00C5F1F4FFFE3F983882411
:105040008394912C6501E89437F833FE2DC0522CDF
:105050008114910471F5552009F468CFB70180E2FD
:1050600090E00E9474295A94F6CFF80180818983D8
:105070000E5F1F4FE4CF2801F2E04F0E511CF801E4
:10508000C080D180692D70E036FC02C06FEF7FEFE9
:10509000C6010E9469294C018201D5CFB70180E287
:1050A00090E00E9474292A942814190409F0B0F79A
:1050B000CECFF60137FC859137FE81916F01B701A4
:1050C00090E00E94742951105A94F1E08F1A9108CF
:1050D000BFCF843619F0893609F077C0F80137FE62
:1050E0006BC060817181828193810C5F1F4FF32DB2
:1050F000FF763F2E97FF09C090958095709561953A
:105100007F4F8F4F9F4F689437F82AE030E0A5011A
:105110000E94A429C82ECA188C2C432C36FE0CC021
:10512000E89440F8C91440F434FE05C032FC03C0D2
:10513000F32DFE7E4F2E892C44FE95C0FE01EC0D12
:10514000F11D8081803309F087C0242D297E422EF5
:10515000842D8870582E43FC95C040FE8FC09C2C37
:10516000821418F42C0C922C981844FE91C0B701AC
:1051700080E390E00E94742942FE09C088E790E035
:1051800041FE02C088E590E0B7010E947429C9146D
:1051900008F48AC0CA94D12C9FEFC91AD90ACA0C44
:1051A000DB1CF60182916F01B70190E00E94742927
:1051B000AC14BD04B1F74FCF60817181072E000C94
:1051C000880B990B0E5F1F4F92CFD32CE894D4F825
:1051D0002AE030E0853739F1232D297FD22E8F3612
:1051E00001F148F48835A9F0F701868197812B9663
:1051F000E2E10C944323803749F08837A9F7D4FEC5
:1052000002C06894D2F820E130E00DC06894D4F870
:10521000F6CF34FE03C0822F8660D82E20E132E024
:1052200002C028E030E0F801D7FE0FC06081718134
:10523000828193810C5F1F4FA5010E94A429C82E73
:10524000CA183D2CE89437F867CF6081718190E0EF
:1052500080E00E5F1F4FF0CF42FC02C0839478CFF6
:105260008394839475CF842D867809F471CFF6CF1B
:10527000B70180E290E00E94742983948214C0F305
:10528000512C73CF522C5818821408F46ECFF8CFDB
:10529000842D867809F47BCF8BE241FE80E247FCC7
:1052A0008DE2B70190E071CFB70180E390E00E94FA
:1052B00074299A946CCF8FEF9FEF99CFFC010590E2
:1052C000615070400110D8F7809590958E0F9F1F08
:1052D0000895FC016150704001900110D8F780954D
:1052E00090958E0F9F1F08950F931F93CF93DF9379
:1052F000182F092FEB018B8181FD09C01FEF0FEFE4
:10530000812F902FDF91CF911F910F91089582FFF0
:1053100014C02E813F818C819D81281739073CF470
:10532000E881F981CF0101969983888310838E816A
:105330009F8101969F838E83E3CFE885F985812F36
:105340000995892BA1F3DACFFA01AA27283051F168
:10535000203181F1E8946F936E7F6E5F7F4F8F4FA6
:105360009F4FAF4FB1E03ED0B4E03CD0670F781F05
:10537000891F9A1FA11D680F791F8A1F911DA11DEA
:105380006A0F711D811D911DA11D20D009F4689423
:105390003F912AE0269F11243019305D3193DEF6CB
:1053A000CF010895462F4770405D4193B3E00FD081
:1053B000C9F7F6CF462F4F70405D4A3318F0495D6C
:1053C00031FD4052419302D0A9F7EACFB4E0A6954F
:1053D0009795879577956795BA95C9F70097610571
:1053E000710508959B01AC010A2E069457954795C7
:1053F00037952795BA95C9F7620F731F841F951FBC
:10540000A01D089510E0CFEDD0E004C0FE010E9481
:0E541000D2242196C03ED107C9F7F894FFCFF1
:10541E00014A014A0101000000000038078000AC7B
:10542E003300000000006D044710FC098E0D50156E
:10543E00000000006D044510FC09980D9F15781EA4
:10544E0000A02800F03C00405100127A00E4A200B7
:10545E0024F40048E80190D00320A10700000000CA
:10546E00120272019F015F02D001AE01C201000063
:10547E000000D403C109C206D3038D0972099B092A
:10548E00000000005F043704C206261567011D04E4
:10549E000A040000000093066606C206D3035F06E8
:1054AE004C063D06000000006D044B10FC09A10DDA
:1054BE00EA15000000006D044910FC09F90F3916B9
:1054CE000D0A00536C6565700052656365697665FB
:1054DE00204D6573736167653A20004148547830FA
:1054EE005F540041485478305F4800424D50323886
:1054FE0030004C6F52614E6F772053696D706C6542
:10550E00204E6F6465004C6F526120696E69742085
:10551E006661696C65642E20436865636B20796FE4
:10552E00757220636F6E6E656374696F6E732E0095
:10553E004E6F64652049643A200046726571756548
:10554E0063793A2000436F756E743A20005061798A
:10555E006C6F61643A20007B0A22646576223A22DF
:10556E0072656D494F763031222C0A2243487322E0
:10557E003A20332C0A224368496473223A205B2274
:10558E0030303031222C2230303032222C2230304A
:10559E003033225D2C0A22436856616C7565732286
:1055AE003A205B25732C2025732C2025735D2C0A45
:1055BE00224449223A5B25645D2C0A224149223A53
:0C55CE005B25642C2025645D0A7D000034
:00000001FF
